:1000000000308A00A228000045362039E5397536CF
:10001000F430E437A032731DBD12780500002130A2
:10002000840083130008031922280630F800F70122
:10003000F70B1828F80B17287B30F700F70B1E2852
:10004000800B15288A110A12C7280B08A2008B13EF
:10005000831603178C170C1400000000031858288F
:1000600083120C087F390313A30003170D08031331
:10007000A40003170F080313A50023080C1E3E2835
:100080009900240803178D000313250803178F0018
:1000900083168C170C140000000083120313A10BAD
:1000A00052285528831603175828782883160317D3
:1000B00083120C0D0E0D7F390313A30003170D08D7
:1000C0000313A40003170F080313A50023080C1E35
:1000D00067289900240803178D00031325080317C8
:1000E0008F008D0A03198F0A03100313A10B282810
:1000F000A21B8B178A110A12D628A21B90280F3038
:10010000F700210EF7050A30770203188A283030ED
:10011000F7078C282208F70777080C1E8D2899000E
:100120000F30A1050A3021020318982830309A2890
:10013000A2132208A10721080C1E9C2899008A11ED
:100140000A12DB28840183131F30830520308316B5
:100150009900A630980090308312980083161F14DF
:100160009F141F159F111F109F101F119F118312A5
:100170001F179F1783169F1383121F143830F80020
:100180001F08C73978049F001430A1000F281F15DD
:100190001F19C8281E08A000043003178D00003066
:1001A0008F00031011300313A10025282008A1009F
:1001B0005730A2007D280A300C1EDC2899008316D7
:0C01C0008801831220088800C428630016
:023E00000800B8
:02400E00723FFF
:00000001FF
;PIC16F877
;CRC=2E8F  CREATED="01-dic-22 18:37"
