:1000000000308A00D3280000FF00030E8301A10006
:100010000A08A0008A010408A2007708A300780853
:10002000A4007908A5007A08A600831383128B1E0A
:100030001B280B192C28220884002308F700240809
:10004000F8002508F9002608FA0020088A00210E89
:100050008300FF0E7F0E09008A110A122F28A80ABA
:100060000319A90A2808FB3C031DC4282908023CDF
:10007000031DC428C83003178D0000308F00031003
:1000800011300313AA000B08AB008B138316031760
:100090008C170C14000000000318762883120C083B
:1000A0007F390313AC0003170D080313AD000317CA
:1000B0000F080313AE002C080C1E5C2899002D08B5
:1000C00003178D0003132E0803178F0083168C1758
:1000D0000C140000000083120313AA0B702873286D
:1000E00083160317762896288316031783120C0DA0
:1000F0000E0D7F390313AC0003170D080313AD0079
:1001000003170F080313AE002C080C1E8528990056
:100110002D0803178D0003132E0803178F008D0A77
:1001200003198F0A03100313AA0B4628AB1B8B1766
:100130002708AA005730AB00AB1BAF280F30F700E1
:100140002A0EF7050A3077020318A9283030F7077E
:10015000AB282B08F70777080C1EAC2899000F3046
:10016000AA050A302A020318B7283030B928AB1381
:100170002B08AA072A080C1EBB2899000A300C1E5F
:10018000BF289900A901A8010B118A110A121B2886
:1001900045362039E5397536F430E437A032731D21
:1001A000BD1278050000840183131F3083052030C1
:1001B00083169900A6309800903083129800A90108
:1001C000A80183161F149F141F159F11831281010C
:1001D00083160108C03907388100640083128B162A
:1001E000C0308B0483161F109F101F119F118312A4
:1001F0001F179F1783169F1383121F143830F800A0
:100200001F08C73978049F002030F700F70B062934
:10021000092900001F151F190B291E08A700042912
:02022000630079
:023E00000800B8
:02400E00723FFF
:00000001FF
;PIC16F877
;CRC=4C03  CREATED="01-dic-22 18:53"
