:1000000001308A0041290000FF00030E8301A10096
:100010000A08A0008A010408A2007708A300780853
:10002000A4007908A5007A08A600831383128B1E0A
:100030001B280B192C28220884002308F700240809
:10004000F8002508F9002608FA0020088A00210E89
:100050008300FF0E7F0E09008A110A122F28A80ABA
:100060000319A90A2808F13C031D8E282908083C19
:10007000031D8E28923003178D0000308F0003136C
:100080000B08AF008B13831603178C170C1400009A
:10009000000083120C087F39031989280313B0006C
:1000A00003170D080313B10003170F080313B20061
:1000B00030080C1E59289900310803178D000313CE
:1000C000320803178F0083168C170C1400000000F1
:1000D00083120C0D0E0D7F39031989280313B0000C
:1000E00003170D080313B10003170F080313B20021
:1000F00030080C1E79289900310803178D0003136E
:10010000320803178F008D0A03198F0A031343283F
:1001100003170313AF1B8B17A901A8010B118A1139
:100120000A121B28CC30E237F230F437F2346F1069
:10013000E432A036E931F237E3376D38753A61328F
:100140006F39E1390A0045362039E5397536F43022
:10015000E437A032731DBD12780500002B308400F7
:10016000831300080319C1280630F800F701F70BC4
:10017000B728F80BB6287B30F700F70BBD28800BAB
:10018000B4288A110A1277290B08AB008B13831647
:1001900003178C170C14000000000318F7288312B3
:1001A0000C087F390313AC0003170D080313AD00CF
:1001B00003170F080313AE002C080C1EDD2899004E
:1001C0002D0803178D0003132E0803178F008316C5
:1001D0008C170C140000000083120313AA0BF128E3
:1001E000F42883160317F728172983160317831299
:1001F0000C0D0E0D7F390313AC0003170D0803130C
:10020000AD0003170F080313AE002C080C1E0629BF
:1002100099002D0803178D0003132E0803178F0074
:100220008D0A03198F0A03100313AA0BC728AB1BEF
:100230008B178A110A128829AB1B2F290F30F70060
:100240002A0EF7050A307702031829293030F707FC
:100250002B292B08F70777080C1E2C2999000F3043
:10026000AA050A302A020318372930303929AB137E
:100270002B08AA072A080C1E3B2999008A110A128A
:100280008D29840183131F30830520308316990044
:10029000A6309800903083129800A901A801831617
:1002A0001F149F141F159F118312810183160108CB
:1002B000C03907388100640083128B16C0308B046C
:1002C00083161F109F101F119F1183121F179F1756
:1002D00083169F1383121F143830F8001F08C73984
:1002E00078049F000830AA00FA30AB00AE28AA0BB1
:1002F00074291F151F197A291E08A700A330031798
:100300008D0000308F00031011300313AA00C428A1
:100310002708AA005730AB001C290A300C1E8E2972
:1003200099008316880183122708880072296300C8
:023E00000800B8
:02400E00723FFF
:00000001FF
;PIC16F877
;CRC=F04B  CREATED="01-dic-22 18:55"
