:020000040000FA
:020000000528D1
:06000A00850188010313CB
:10001000831600309F0088018312C1309F001F1596
:1000200041201F1911281E08A100C9309F001F156B
:1000300041201F1919281E08A200D1309F001F154A
:100040001F1920281E08A300D9309F001F1541202A
:1000500021082202831C83182E283328210823021A
:10006000831C38283B2822082302831C38283E287A
:10007000073088000F28033088000F2801308800DF
:0C0080000F283030A000A00B432808001F
:00000001FF
