:020000040000FA
:020000000528D1
:06000A00850183160313BB
:1000100006309F00FF3085008601831286010508A7
:10002000003A031928200508013A03192A20050877
:10003000023A03192E200508033A03193520050852
:10004000043A03193B200508053A03193C200E2801
:1000500086010E288601FF3086000E288617422072
:10006000860C4220061C30280E28860D4220422095
:1000700003190E2035200E2886014220FF3086000D
:1000800042200E284030A1000030A2002030A30002
:0E009000A30B4828A20B4628A10B4428080009
:00000001FF
