:020000040000FA
:020000000528D1
:06000A008316031306300B
:100010009F003F3085008601870183120508003A62
:1000200003192F200508023A031932200508043A63
:10003000031937200508053A03193C200508063A3C
:1000400003194120073A03194620083A03194B20A7
:10005000093A03195020103A031955200E28860139
:10006000870108000A308600043087000800043049
:1000700086000430870008000630860002308700C2
:100080000800013086000230870008000A30860030
:10009000063087000800053086000630870008001B
:1000A00006308600063087000800093086000630DA
:0400B00087000800BD
:00000001FF
