:1000000000308A0082280000D437E4377310EC37C0
:100010007310E234F439A032EE316537E434E4375A
:1000200073108A060000D437E4377310EC3773106E
:10003000EC32E439A030F030E730E43773108A0650
:1000400000000B08A1008B13831603178C170C14E8
:100050000000000083120C087F3903196A2803137B
:10006000A20003170D080313A30003170F080313BF
:10007000A40022080C1E3A289900230803178D00BB
:100080000313240803178F0083168C170C14000029
:10009000000083120C0D0E0D7F3903196A2803131B
:1000A000A20003170D080313A30003170F0803137F
:1000B000A40022080C1E5A289900230803178D005B
:1000C0000313240803178F008D0A03198F0A0313E3
:1000D000242803170313A11B8B1708002230840068
:1000E00083130008031981280630F800F701F70B85
:1000F0007728F80B76287B30F700F70B7D28800BEC
:1001000074280800840183131F3083052030831670
:100110009900A630980090308312980083161F141F
:100120009F141F159F118601FF3083128600043033
:1001300003178D0000308F00031321200430A1002D
:10014000FA30A2006E20A10BA0288316860183122C
:100150008601133003178D0000308F000313212018
:100160000430A100FA30A2006E20A10BB228831641
:04017000932863006D
:023E00000800B8
:02400E00723FFF
:00000001FF
;PIC16F877
;CRC=B43D  CREATED="14-nov-22 21:53"
