:1000000000308A00762800004937E434E330203796
:10001000F536203265362018A0306C103510E837E0
:10002000ED398A0600000B08A3008B138316031713
:100030008C170C140000000083120C087F39031980
:100040005C280313A40003170D080313A50003176E
:100050000F080313A60024080C1E2C28990025085D
:1000600003178D000313260803178F0083168C17C0
:100070000C140000000083120C0D0E0D7F390319C3
:100080005C280313A40003170D080313A50003172E
:100090000F080313A60024080C1E4C2899002508FD
:1000A00003178D000313260803178F008D0A031909
:1000B0008F0A0313162803170313A31B8B178A1128
:1000C0000A1290282430840083130008031975282D
:1000D0000630F800F701F70B6B28F80B6A287B3025
:1000E000F700F70B7128800B682808008401831340
:1000F0001F308305203083169900A6309800903079
:1001000083129800A10183161F149F141F159F11BD
:100110000430831203178D0000308F00031313285F
:100120008C1E90281A08A0002008303C031D9D2832
:10013000831686018312860156292008313C031D4F
:10014000A72883168601FF308312860056292008CF
:10015000323C031DCF280130A10083168601831293
:10016000210886000430A300FA30A4006220A30B0B
:10017000B428A2012208073C031CCE280310A10DBD
:10018000831686018312210886000430A300FA300A
:10019000A4006220A30BC728A20ABA285629200867
:1001A000333C031DF7288030A1008316860183129B
:1001B000210886000430A300FA30A4006220A30BBB
:1001C000DC28A2012208073C031CF6280310A10C1E
:1001D000831686018312210886000430A300FA30BA
:1001E000A4006220A30BEF28A20AE22856292008C7
:1001F000343C031D42290130A1008316860183127D
:10020000210886000430A300FA30A4006220A30B6A
:100210000429A2012208073C031C1E290310A10D7A
:10022000831686018312210886000430A300FA3069
:10023000A4006220A30B1729A20A0A298030A1007A
:10024000831686018312210886000430A300FA3049
:10025000A4006220A30B2729A2012208073C031C4B
:1002600041290310A10C8316860183122108860000
:100270000430A300FA30A4006220A30B3A29A20A9A
:100280002D2956292008353C031D56298316860141
:10029000FF30831286000430A300FA30A4006220ED
:1002A000A30B4D29831686018312860183168828A5
:0202B0006300E9
:023E00000800B8
:02400E00723FFF
:00000001FF
;PIC16F877
;CRC=0703  CREATED="14-nov-22 22:16"
